{
  "contractName": "baucu",
  "abi": [
    {
      "inputs": [],
      "payable": false,
      "stateMutability": "nonpayable",
      "type": "constructor"
    },
    {
      "anonymous": false,
      "inputs": [
        {
          "indexed": true,
          "internalType": "uint256",
          "name": "_candidateId",
          "type": "uint256"
        }
      ],
      "name": "votedEvent",
      "type": "event"
    },
    {
      "constant": true,
      "inputs": [
        {
          "internalType": "uint256",
          "name": "",
          "type": "uint256"
        }
      ],
      "name": "candidates",
      "outputs": [
        {
          "internalType": "uint256",
          "name": "id",
          "type": "uint256"
        },
        {
          "internalType": "string",
          "name": "name",
          "type": "string"
        },
        {
          "internalType": "string",
          "name": "gioitinh",
          "type": "string"
        },
        {
          "internalType": "uint256",
          "name": "tuoi",
          "type": "uint256"
        },
        {
          "internalType": "string",
          "name": "tomtat",
          "type": "string"
        },
        {
          "internalType": "uint256",
          "name": "voteCount",
          "type": "uint256"
        }
      ],
      "payable": false,
      "stateMutability": "view",
      "type": "function"
    },
    {
      "constant": true,
      "inputs": [],
      "name": "candidatesCount",
      "outputs": [
        {
          "internalType": "uint256",
          "name": "",
          "type": "uint256"
        }
      ],
      "payable": false,
      "stateMutability": "view",
      "type": "function"
    },
    {
      "constant": true,
      "inputs": [
        {
          "internalType": "address",
          "name": "",
          "type": "address"
        }
      ],
      "name": "voters",
      "outputs": [
        {
          "internalType": "bool",
          "name": "",
          "type": "bool"
        }
      ],
      "payable": false,
      "stateMutability": "view",
      "type": "function"
    },
    {
      "constant": false,
      "inputs": [
        {
          "internalType": "string",
          "name": "_name",
          "type": "string"
        },
        {
          "internalType": "string",
          "name": "_gioitinh",
          "type": "string"
        },
        {
          "internalType": "uint256",
          "name": "_tuoi",
          "type": "uint256"
        },
        {
          "internalType": "string",
          "name": "_tomtat",
          "type": "string"
        }
      ],
      "name": "addCandidate",
      "outputs": [],
      "payable": false,
      "stateMutability": "nonpayable",
      "type": "function"
    },
    {
      "constant": false,
      "inputs": [
        {
          "internalType": "uint256",
          "name": "_a",
          "type": "uint256"
        },
        {
          "internalType": "uint256",
          "name": "_b",
          "type": "uint256"
        },
        {
          "internalType": "uint256",
          "name": "_c",
          "type": "uint256"
        },
        {
          "internalType": "uint256",
          "name": "_d",
          "type": "uint256"
        },
        {
          "internalType": "uint256",
          "name": "_e",
          "type": "uint256"
        }
      ],
      "name": "vote",
      "outputs": [],
      "payable": false,
      "stateMutability": "nonpayable",
      "type": "function"
    }
  ],
  "bytecode": "0x608060405234801561001057600080fd5b506000600281905550610a62806100286000396000f3fe608060405234801561001057600080fd5b50600436106100575760003560e01c80632d35a8a21461005c5780633477ee2e1461007a578063a3ec138d1461020e578063c286d9231461026a578063ca1e51341461045d575b600080fd5b6100646104b3565b6040518082815260200191505060405180910390f35b6100a66004803603602081101561009057600080fd5b81019080803590602001909291905050506104b9565b60405180878152602001806020018060200186815260200180602001858152602001848103845289818151815260200191508051906020019080838360005b838110156101005780820151818401526020810190506100e5565b50505050905090810190601f16801561012d5780820380516001836020036101000a031916815260200191505b50848103835288818151815260200191508051906020019080838360005b8381101561016657808201518184015260208101905061014b565b50505050905090810190601f1680156101935780820380516001836020036101000a031916815260200191505b50848103825286818151815260200191508051906020019080838360005b838110156101cc5780820151818401526020810190506101b1565b50505050905090810190601f1680156101f95780820380516001836020036101000a031916815260200191505b50995050505050505050505060405180910390f35b6102506004803603602081101561022457600080fd5b81019080803573ffffffffffffffffffffffffffffffffffffffff1690602001909291905050506106bd565b604051808215151515815260200191505060405180910390f35b61045b6004803603608081101561028057600080fd5b810190808035906020019064010000000081111561029d57600080fd5b8201836020820111156102af57600080fd5b803590602001918460018302840111640100000000831117156102d157600080fd5b91908080601f016020809104026020016040519081016040528093929190818152602001838380828437600081840152601f19601f8201169050808301925050505050505091929192908035906020019064010000000081111561033457600080fd5b82018360208201111561034657600080fd5b8035906020019184600183028401116401000000008311171561036857600080fd5b91908080601f016020809104026020016040519081016040528093929190818152602001838380828437600081840152601f19601f82011690508083019250505050505050919291929080359060200190929190803590602001906401000000008111156103d557600080fd5b8201836020820111156103e757600080fd5b8035906020019184600183028401116401000000008311171561040957600080fd5b91908080601f016020809104026020016040519081016040528093929190818152602001838380828437600081840152601f19601f8201169050808301925050505050505091929192905050506106dd565b005b6104b1600480360360a081101561047357600080fd5b8101908080359060200190929190803590602001909291908035906020019092919080359060200190929190803590602001909291905050506107b2565b005b60025481565b6001602052806000526040600020600091509050806000015490806001018054600181600116156101000203166002900480601f01602080910402602001604051908101604052809291908181526020018280546001816001161561010002031660029004801561056b5780601f106105405761010080835404028352916020019161056b565b820191906000526020600020905b81548152906001019060200180831161054e57829003601f168201915b505050505090806002018054600181600116156101000203166002900480601f0160208091040260200160405190810160405280929190818152602001828054600181600116156101000203166002900480156106095780601f106105de57610100808354040283529160200191610609565b820191906000526020600020905b8154815290600101906020018083116105ec57829003601f168201915b505050505090806003015490806004018054600181600116156101000203166002900480601f0160208091040260200160405190810160405280929190818152602001828054600181600116156101000203166002900480156106ad5780601f10610682576101008083540402835291602001916106ad565b820191906000526020600020905b81548152906001019060200180831161069057829003601f168201915b5050505050908060050154905086565b60006020528060005260406000206000915054906101000a900460ff1681565b6002600081548092919060010191905055506040518060c001604052806002548152602001858152602001848152602001838152602001828152602001600081525060016000600254815260200190815260200160002060008201518160000155602082015181600101908051906020019061075a929190610988565b506040820151816002019080519060200190610777929190610988565b5060608201518160030155608082015181600401908051906020019061079e929190610988565b5060a0820151816005015590505050505050565b6000803373ffffffffffffffffffffffffffffffffffffffff1673ffffffffffffffffffffffffffffffffffffffff16815260200190815260200160002060009054906101000a900460ff161561080857600080fd5b60016000803373ffffffffffffffffffffffffffffffffffffffff1673ffffffffffffffffffffffffffffffffffffffff16815260200190815260200160002060006101000a81548160ff0219169083151502179055506001851415610890576001600060018152602001908152602001600020600501600081548092919060010191905055505b60028414156108c1576001600060028152602001908152602001600020600501600081548092919060010191905055505b60038314156108f2576001600060038152602001908152602001600020600501600081548092919060010191905055505b6004821415610923576001600060048152602001908152602001600020600501600081548092919060010191905055505b6005811415610954576001600060058152602001908152602001600020600501600081548092919060010191905055505b847ffff3c900d938d21d0990d786e819f29b8d05c1ef587b462b939609625b684b1660405160405180910390a25050505050565b828054600181600116156101000203166002900490600052602060002090601f016020900481019282601f106109c957805160ff19168380011785556109f7565b828001600101855582156109f7579182015b828111156109f65782518255916020019190600101906109db565b5b509050610a049190610a08565b5090565b610a2a91905b80821115610a26576000816000905550600101610a0e565b5090565b9056fea265627a7a723158203dd977546a86cb2caf6b85e85b1dc8719dabbe37417c1f87284fe94960a4a5c064736f6c63430005100032",
  "source": "pragma solidity >=0.4.2;\r\n\r\ncontract baucu {\r\n    // Model a Vote\r\n    // mapping(uint => string) hash; //hash thông tin\r\n    // mapping(uint => string) hashimage;\r\n    // mapping(uint => Candidate[]) candidates; //mảng ứng cử viên\r\n    // mapping(uint => uint) number; //so luong bau chon\r\n    \r\n    // Model a Candidate\r\n    struct Candidate {\r\n        uint id;\r\n        string name;\r\n        string gioitinh;\r\n        uint tuoi;\r\n        string tomtat;\r\n        uint voteCount;\r\n    }\r\n\r\n    // Store accounts that have voted\r\n    mapping(address => bool) public voters;\r\n    // Store Candidates\r\n    // Fetch Candidate\r\n    mapping(uint => Candidate) public candidates;\r\n    // Store Candidates Count\r\n    uint public candidatesCount;\r\n\r\n    // voted event\r\n    event votedEvent (\r\n        uint indexed _candidateId\r\n    );\r\n\r\n    constructor() public {\r\n        candidatesCount = 0;\r\n        \r\n    }\r\n\r\n    function addCandidate (string memory _name, string memory _gioitinh, uint _tuoi, string memory _tomtat) public {\r\n        candidatesCount ++;\r\n        candidates[candidatesCount] = Candidate(candidatesCount,_name,_gioitinh,_tuoi,_tomtat,0);\r\n    }\r\n\r\n    function vote (uint _a, uint _b, uint _c, uint _d, uint _e) public {\r\n        // require that they haven't voted before\r\n        require(!voters[msg.sender]);\r\n\r\n        // require a valid candidate\r\n        // require(_candidateId > 0 && _candidateId <= candidatesCount);\r\n\r\n        // record that voter has voted\r\n        voters[msg.sender] = true;\r\n\r\n        // update candidate vote Count\r\n        if (_a==1)candidates[1].voteCount ++;\r\n        if (_b==2) candidates[2].voteCount ++;\r\n        if (_c==3) candidates[3].voteCount ++;\r\n        if (_d==4) candidates[4].voteCount ++;\r\n        if (_e==5) candidates[5].voteCount ++;\r\n        \r\n\r\n        // trigger voted event\r\n        emit votedEvent(_a);\r\n    }\r\n\r\n}\r\n",
  "sourcePath": "D:\\Downloads\\test\\mới\\baucu\\contracts\\baucu.sol",
  "compiler": {
    "name": "solc",
    "version": "0.5.16+commit.9c3226ce.Emscripten.clang"
  },
  "schemaVersion": "3.4.10",
  "updatedAt": "2022-12-15T02:23:01.017Z",
  "networkType": "ethereum",
  "devdoc": {
    "methods": {}
  },
  "userdoc": {
    "methods": {}
  }
}